:080000000C9444000C94000074
:100008000C9400000C9400000C9400000C94000068
:100018000C9400000C9400000C9400000C947100E7
:100028000C9400000C9400000C9400000C94000048
:100038000C9400000C9400000C9400000C94000038
:100048000C9400000C9400000C94000060014142E4
:10005800434445464748494A4B4C4D4E4F505152F0
:10006800535455565758595A000080C002000A0088
:1000780054001B006001560002007B017200000062
:10008800F894EE27ECBBF1E0FBBFEBBFE5BF8DE0DA
:10009800A2E0BB27ED938A95E9F780E094E0A0E61B
:1000A800ED930197E9F7E4E7F0E0859195910097E2
:1000B80061F0A591B59105901590BF01F0010590EB
:1000C8000D920197E1F7FB01F0CFEFE5EDBFE4E01A
:1000D800EEBFC0E6D1E00C94B5000A921A92FA92EB
:1000E8006A937A938A939A93AA93BA93EA93FA9320
:1000F800EFB7EA93F20131962F01E4EFF1E0E4154E
:10010800F50509F5F601EA0DFB1DA08179D0F60188
:1001180031966F01F30131963F01E4E1F0E0E61515
:10012800F70529F466247724E1E0F0E04F016A92AC
:10013800A82D49D044245524EAE1F0E0EC15FD054A
:1001480011F4A9D051D0E991EFBFF991E991B99192
:10015800A9919991899179916991F990199009904A
:100168001895EFEFE4BBE5BB96D044245524A4E1F1
:1001780066D0E1E0E3BFE0E0E2BFECBFE1E0E9BF69
:100188007894FFCFFFCFAA93E5B3EF70AE2FE88145
:10019800E07FEA2BE5BB84E18A95F1F7AA9A84E12E
:1001A8008A95F1F7AA9884E18A95F1F772C0AA9323
:1001B800A881E9DFE881E295E883A881E4DF88EC9B
:1001C8008A95F1F766C0AA93E881F0E0E558FE4FFA
:1001D800E081A981AE0FEBDFE981E0937F01E8813F
:1001E800E093800122960895A2E05CD0ACE0DFDFC6
:1001F800A1E058D0E0E0E0938001E0937F0108950A
:10020800AA93A881AA3031F0E0918101A0917F01E1
:10021800AE1758F0E0E0EA93A0918001AF5FA09399
:100228008001D1DFA881AA30A1F1E0917F01EF5FC1
:10023800E0937F01A89AA881BADFA8982AC0AA9358
:10024800E4B3E06FE4BBA29AA09AA19AAA98A898EE
:10025800A998E881E0938101E058E0937D01E88165
:10026800E054E0937E01A4E1B0E00E9462011FD057
:100278001ED01DD0A0E287DF8CE291E00197F1F754
:10028800A8E295DFA4E093DFA5E891DFA6E08FDF81
:10029800ABDF21960895CC24DD24662477248824B6
:1002A8009924089584DFA3E0B0E00C946201A0E3F0
:1002B8006ADF8CE291E00197F1F70895109639F022
:1002C80088EB9BE00197F1F7A8951197C9F7089576
:00000001FF
