:040000000C94360026
:100004000C9400000C9400000C9400000C9400006C
:100014000C9400000C9400000C9400000C9400005C
:100024000C9400000C9400000C9400000C9400004C
:100034000C9400000C9400000C9400000C9400003C
:100044000C9400000C9400000C9400000C9400002C
:1000540048656C6C6F20576F726C6421000080C01F
:100064000200600162000000F894EE27ECBBF1E0AE
:10007400FBBFEBBFE5BF8DE0A2E0BB27ED938A9504
:10008400E9F780E094E0A0E6ED930197E9F7E4E670
:10009400F0E085919591009761F0A591B591059057
:1000A4001590BF01F00105900D920197E1F7FB0156
:1000B400F0CFEFE5EDBFE4E0EEBFC0E6D1E00C9495
:1000C4006300EFEFE4BBE5BB7894A4E168D0E0E023
:1000D400EA93A0E025D0A4E5B0E04ED0F8CFFFCF5E
:1000E400AA93E5B3EF70AE2FE881E07FEA2BE5BB7E
:1000F40084E18A95F1F7AA9A84E18A95F1F7AA989E
:1001040084E18A95F1F774C0AA93A881E9DFE881B4
:10011400E295E883A881E4DF88EC8A95F1F768C06A
:10012400AA93E881F0E0E05AFE4FE081A981AE0F86
:10013400EBDF5980488022960895A2E05BD0ACE0C2
:10014400E3DFA1E057D0E0E04E2E5E2E0895AA939F
:10015400A881AA3011F0571448F0E0E0EA934394E0
:10016400A42DDEDFA881AA3009F442C05394A89AD2
:10017400A881CADFA8983CC0BA93AA931A93E981CC
:10018400FA813196E983FA833197E4911E2FE030A6
:1001940019F0A12FDCDFF3CF188123960895AA93D9
:1001A400E4B3E06FE4BBA29AA09AA19AAA98A89893
:1001B400A9987880E881E058E0936201E881E054EE
:1001C400E0936301A4E1B0E00E94080118D017D0C5
:1001D40016D0A0E285DF8CE291E00197F1F7A8E266
:1001E40093DFA4E091DFA5E88FDFA6E08DDFA5DF34
:1001F4002196089589DFA3E0B0E00C940801A0E300
:100204006FDF8CE291E00197F1F70895109639F0D1
:1002140088EB9BE00197F1F7A8951197C9F708952A
:00000001FF
