:020000000C945E
:100002004B000C9400000C9400000C9400000C9423
:1000120000000C9400000C9400000C9400000C945E
:1000220000000C9400000C9400000C9400000C944E
:1000320000000C9400000C9400000C9400000C943E
:1000420000000C9400000C9400000C9400000C942E
:1000520000001027E80364000A00010000100001FC
:1000620010000100696E6974696174696E672E2EF1
:100072002E004672657175656E63793D2025642098
:10008200487A000080C00E00600166000200820112
:1000920086000000F894EE27ECBBF1E0FBBFEBBF5B
:1000A200E5BF8DE0A2E0BB27ED938A95E9F780E0FA
:1000B20094E0A0E6ED930197E9F7E8E8F0E0859196
:1000C2009591009761F0A591B59105901590BF01AA
:1000D200F00105900D920197E1F7FB01F0CFEFE5FA
:1000E200EDBFE4E0EEBFC0E6D1E00C947800A4E1FD
:1000F200C5D0A0E6B1E0B1D0EFEFE4BBE0E0E5BBF4
:10010200E0E0EFBDE0E0F0E0FDBDECBDE0E2E8BF25
:10011200E1E4EEBDE8B7E5FFFDCF0E942F032F011A
:10012200E0E2E8BFE1E0EEBDE8B7E5FFFDCF0E9407
:100132002F033F01E0E2E8BFE1E4EEBDE8B7E5FFEF
:10014200FDCF0E942F034F01E0E2E8BFE0E0EEBDE9
:100152004814590460F5F401E419F5095F016627B2
:100162007727A0E0B2E18AE790E00E948903E0935A
:100172007E01F0937F016093800170938101EEE62E
:10018200F1E0FA93EA93E4E7F0E0FA93EA93E0917C
:100192007E01F0917F010E9484030E94B60384E0F5
:1001A2000E94E202289636D0AEE6B1E056D0A6E929
:1001B200B0E00E947203A4CFFFCFAA93E5B3EF7021
:1001C200AE2FE881E07FEA2BE5BB84E18A95F1F767
:1001D200AA9A84E18A95F1F7AA9884E18A95F1F7BF
:1001E2007AC0AA93A881E9DFE881E295E883A88131
:1001F200E4DF88EC8A95F1F76EC0AA93E881F0E01B
:10020200EE57FE4FE081A981AE0FEBDFD980C880A7
:1002120022960895A2E00E943803ACE0E2DFA1E05A
:100222000E943803E0E0CE2EDE2E0895AA93A88124
:10023200AA3021F0E0918601DE1648F0E0E0EA9370
:10024200C394AC2DDADFA881AA3009F444C0D39458
:10025200A89AA881C6DFA8983EC0BA93AA931A9317
:10026200A981BA81ED91A983BA831E2FE03019F0DA
:10027200A12FDCDFF5CF188123960895AA93E4B36A
:10028200E06FE4BBA29AA09AA19AAA98A898A9980A
:10029200E881E0938601E058E0938401E881E0542C
:1002A200E0938501A4E1B0E00E9472030E943E0344
:1002B2000E943E030E943E03A0E27FDF8CE291E0B7
:1002C2000197F1F7A8E28DDFA4E08BDFA5E889DFD3
:1002D200A6E087DF9FDF21960895BA93AA931A9327
:1002E2000A93AA81BB8112960E94AE03309759F1FC
:1002F200AA81BB8114960E94AE038F01309761F0F0
:100302000230E0E01E0798F0F80131978F01AA81D0
:10031200BB811496ED93FC93AA81BB811296ED9159
:10032200FD913196FE93EE933197AC81A083AA8121
:10033200BB810E94AE03FF232AF0ED91FD9131961D
:10034200FE93EE9306C0AA81BB81EFEFFFEFED9320
:10035200FC931981088125960895BA93AA9326974A
:100362000E94BB0310E0AC85BD85E0E0F0E0ED93B8
:10037200FC93EA89FB893196EA8BFB8B3197E491F6
:100382002E2FE03009F415C1E12FE03039F4253287
:1003920011F411E002C00E9446030AC1E130A9F43F
:1003A200253219F40E94460302C112E040E000E047
:1003B2002D3211F401E0FCC02B3211F44BE2F8C0F3
:1003C200203211F440E2F4C002C0E23039F450E0CD
:1003D20013E0203311F40068EBC003C0E33009F0EE
:1003E200E7C0203310F02A3308F007C0AAE05A9F72
:1003F200502DE22FE0535E0FDBC0E22FE33649F4CB
:100402000E944D03E889F989A481AA930E945303AB
:10041200CEC0E33741F40E944D030E9459030E946B
:1004220016031E2F0AC0E03761F40E944D030E949A
:1004320059030E9422031E2F086002600F7730E0EA
:1004420034C0E43611F0E93611F4046002C0E53735
:1004520031F4E4E5F0E0EE83FF8315E00CC0E8350B
:1004620011F4086003C0E83709F0A1C0EEE5F0E03E
:10047200EE83FF8314E002FF14C00E944D030E942A
:100482006303AB85AA233AF4EA85FB850E948003C5
:10049200EA87FB874DE2403011F01F5F01C00B7FFE
:1004A20004C00E944D030E94630300FD11C0151792
:1004B20078F407FF08C002FF04C00B7F242F1150FD
:1004C20001C020E301C020E20E9446035150EFCF59
:1004D200312F01FF17C03030A1F003FF06C0EE81BB
:1004E200FF812591EE83FF8305C0AE81BF812D91EF
:1004F200AE83BF830E944603503009F05150315001
:10050200EACF4BC020E3EE81FF810E94B203E8876D
:10051200F987EE81FF813296EE83FF83E885F985C4
:10052200AA85BB85AE17BF0750F02F5FA885B98596
:10053200EA85FB85EA1BFB0BEA87FB87EFCF2A33B1
:1005420028F003FF02C0295F01C0295D04FD1AC023
:10055200213320F4A885B985119709F409C05317EE
:1005620010F000FF01C013C020E207FF0BC020E320
:10057200006102FF07C00B7F4A930E945303503071
:1005820009F051500E944603503009F05150315049
:10059200A885B985129708F0B5CF00FF08C0503082
:1005A20031F05150E0E2EA930E945303F8CF10E099
:1005B200E0CEAC85BD850E94AE030E94C203649664
:1005C2000895FF92F82E26970E94BD030E946B03A6
:1005D200309719F4EFEFFFEF23C0DE0116960E9469
:1005E2007C038D010E946B03EE83FF83E0E0E887CA
:1005F200E987DE011A960E947C030E94AE03FA93F9
:10060200EA931A930A93EEE6F1E0FA93EA93DE0193
:100612001A96A3DE9F01AE81BF81E0E0EC93F9015F
:100622000E94C4032A96FF900895BA93AA93A991AF
:10063200B991EE27FF276D91662311F03196FBCF1A
:100642000895BA93AA93AA27BB27E991F991059035
:10065200002011F01196FBCFFD010895E7B5FE2FA2
:10066200E0E0DF01E6B5F0E0EA0FFB1F08950E942B
:10067200F200A3E0B0E00C947203A0E30E94DE005B
:100682008CE291E00197F1F708952A93AD85BE853A
:10069200EF85F88909950895E889F9893497E88BF7
:1006A200F98B0895AD85BE85EF85F8890995089582
:1006B200A889B98914960E94AE03EE83FF83AE81A6
:1006C200BF810895A889B98914960E94AE03EA876A
:1006D200FB870895DE011C960E947C030E94AE03F4
:1006E2000895109639F088EB9BE00197F1F7A895F1
:1006F2001197C9F708950024AF0DB01D0895F19523
:10070200E195F04008956F2F660F660B762F0895DE
:100712003F934F935F93002411244427552730E2DF
:10072200AA0FBB1F881F991F001C111C441F551FB5
:100732000E1A1F0A460B570B28F40E0E1F1E461FD9
:10074200571F01C0A1603A9559F7FD01BC01D001C4
:10075200CA015F914F913F910895ED91FC911197DC
:1007620008950590F491E02D08957A936A93FA938F
:10077200EA9308955A934A933A932A931A930A93BF
:1007820008955D814C813B812A81198108810895F8
:00000001FF
