:0E0000000C942F000C9400000C9400000C9443
:10000E0000000C9400000C9400000C9400000C9462
:10001E0000000C945C000C9400000C9400000C94F6
:10002E0000000C9400000C9400000C9400000C9442
:10003E0000000C9400000C9400000C9400000C9432
:10004E0000000C94000000000200040054000000A8
:10005E00F894EE27ECBBF1E0FBBFEBBFE5BF8DE004
:10006E00A2E0BB27ED938A95E9F780E094E0A0E645
:10007E00ED930197E9F7E6E5F0E08591959100970C
:10008E0061F0A591B59105901590BF01F001059015
:10009E000D920197E1F7FB01F0CFEFE5EDBFE4E044
:1000AE00EEBFC0E6D1E00C947C00EA93FA93EFB772
:1000BE00EA93F30131963F01ECE3F0E0E615F70524
:1000CE0059F4EAE0F0E04E165F0614F0442455248D
:1000DE0045BAF20131962F01EFEFEDBDE0EFECBD29
:1000EE00E991EFBFF991E9911895E0E0EFBDE1E0FC
:1000FE00EEBDEFEFEDBDE0EFECBDE0E0E5BFE4BF40
:10010E00E4E0E9BF7894EFEFE4BBE5BBFFCFFFCFB0
:00000001FF
