:0E0000000C943E000C9400000C9400000C9434
:10000E0000000C9400000C9400000C9400000C9462
:10001E0000000C946B000C9400000C9400000C94E7
:10002E0000000C9400000C9400000C9400000C9442
:10003E0000000C9400000C9400000C9400000C9432
:10004E0000000C94000001000000000001000100FF
:10005E00000001000000000001000100000000008F
:10006E000100000001001F00600154000000F89420
:10007E00EE27ECBBF1E0FBBFEBBFE5BF8DE0A2E0EE
:10008E00BB27ED938A95E9F780E094E0A0E6ED9327
:10009E000197E9F7E4E7F0E085919591009761F01B
:1000AE00A591B59105901590BF01F00105900D92A7
:1000BE000197E1F7FB01F0CFEFE5EDBFE4E0EEBF16
:1000CE00C0E6D1E00C94D4000A92EA93FA93EFB70B
:1000DE00EA93E1E0F0E0E615F70509F058C0042CCC
:1000EE00052861F5F4010E940001E05AFE4FE081FF
:1000FE00E03011F4D89801C0D89AF4010E940001A2
:10010E00EE59FE4FE081E03011F4D99801C0D99A32
:10011E00F4010E940001EC59FE4FE081E03011F431
:10012E00DA9801C0DA9AF4010E940001EA59FE4FF2
:10013E00E081E03011F4DB9801C0DB9AE5E0F0E0FD
:10014E00E415F5052CF4EAE0F0E0E415F5050CF401
:10015E0002C0E0E0EBBBEAE0F0E0E415F50581F467
:10016E0044245524E3E0F0E08E169F0624F4F401B7
:10017E0031964F0104C0882499246624772403C045
:10018E00F20131962F01EFEFEDBDE0EFECBDE991FD
:10019E00EFBFF991E99109901895E5E0E9BFE3BF4A
:1001AE00E0E0E2BFECBFEFBDE5E0EEBDEFEFEDBD91
:1001BE00E0EFECBDE0E0E5BFE4BF7894E0E0E4BB47
:1001CE00E3BBEFEFEABBE0E0EBBB4424552466242F
:1001DE007724882499249A9904C0002406140704CD
:1001EE0009F005C044245524E1E0F0E03F01F3CFCF
:1001FE00FFCFEE0FFF1FEE0FFF1FEE0FFF1F089535
:00000001FF
